{
  "contractName": "SimpleStorage",
  "abi": [
    {
      "constant": true,
      "inputs": [
        {
          "internalType": "string",
          "name": "",
          "type": "string"
        }
      ],
      "name": "balances",
      "outputs": [
        {
          "internalType": "uint256",
          "name": "",
          "type": "uint256"
        }
      ],
      "payable": false,
      "stateMutability": "view",
      "type": "function"
    },
    {
      "constant": false,
      "inputs": [
        {
          "internalType": "uint256",
          "name": "x",
          "type": "uint256"
        },
        {
          "internalType": "string",
          "name": "addr",
          "type": "string"
        }
      ],
      "name": "vote",
      "outputs": [],
      "payable": false,
      "stateMutability": "nonpayable",
      "type": "function"
    },
    {
      "constant": true,
      "inputs": [
        {
          "internalType": "string",
          "name": "addr",
          "type": "string"
        }
      ],
      "name": "alreadyvoted",
      "outputs": [
        {
          "internalType": "uint256",
          "name": "",
          "type": "uint256"
        }
      ],
      "payable": false,
      "stateMutability": "view",
      "type": "function"
    },
    {
      "constant": true,
      "inputs": [],
      "name": "get_A",
      "outputs": [
        {
          "internalType": "uint256",
          "name": "",
          "type": "uint256"
        }
      ],
      "payable": false,
      "stateMutability": "view",
      "type": "function"
    },
    {
      "constant": true,
      "inputs": [],
      "name": "get_B",
      "outputs": [
        {
          "internalType": "uint256",
          "name": "",
          "type": "uint256"
        }
      ],
      "payable": false,
      "stateMutability": "view",
      "type": "function"
    }
  ],
  "bytecode": "0x608060405260008055600060015534801561001957600080fd5b5061049b806100296000396000f3fe608060405234801561001057600080fd5b50600436106100575760003560e01c8063241084751461005c5780632afd97a414610121578063324f6232146101f05780637125833a146102bf578063e91df8b3146102dd575b600080fd5b61011f6004803603604081101561007257600080fd5b81019080803590602001909291908035906020019064010000000081111561009957600080fd5b8201836020820111156100ab57600080fd5b803590602001918460018302840111640100000000831117156100cd57600080fd5b91908080601f016020809104026020016040519081016040528093929190818152602001838380828437600081840152601f19601f8201169050808301925050505050505091929192905050506102fb565b005b6101da6004803603602081101561013757600080fd5b810190808035906020019064010000000081111561015457600080fd5b82018360208201111561016657600080fd5b8035906020019184600183028401116401000000008311171561018857600080fd5b91908080601f016020809104026020016040519081016040528093929190818152602001838380828437600081840152601f19601f82011690508083019250505050505050919291929050505061039f565b6040518082815260200191505060405180910390f35b6102a96004803603602081101561020657600080fd5b810190808035906020019064010000000081111561022357600080fd5b82018360208201111561023557600080fd5b8035906020019184600183028401116401000000008311171561025757600080fd5b91908080601f016020809104026020016040519081016040528093929190818152602001838380828437600081840152601f19601f8201169050808301925050505050505091929192905050506103cd565b6040518082815260200191505060405180910390f35b6102c7610453565b6040518082815260200191505060405180910390f35b6102e561045d565b6040518082815260200191505060405180910390f35b600280826040518082805190602001908083835b60208310610332578051825260208201915060208101905060208303925061030f565b6001836020036101000a038019825116818451168082178552505050505050905001915050908152602001604051809103902081905550600082141561038857600080815480929190600101919050555061039b565b6001600081548092919060010191905055505b5050565b6002818051602081018201805184825260208301602085012081835280955050505050506000915090505481565b6000600280836040518082805190602001908083835b6020831061040657805182526020820191506020810190506020830392506103e3565b6001836020036101000a0380198251168184511680821785525050505050509050019150509081526020016040518091039020541415610449576001905061044e565b600090505b919050565b6000600154905090565b6000805490509056fea265627a7a72315820f3eadf70bbb3e5e65136dcd3ccb2143daa18d9cca32f27ba6dd681a917f8e1c764736f6c63430005100032",
  "source": "// SPDX-License-Identifier: MIT\npragma solidity >=0.4.21 <8.10.0;\n\ncontract SimpleStorage {\n  uint voteCountA = 0;\n  uint voteCountB = 0;\n  mapping(string => uint) public balances;\n\n  function vote(uint x, string memory addr) public {\n    balances[addr] = 2;\n    if(x == 0){\n      voteCountA++;\n    }\n    else{\n      voteCountB++;\n    }\n  }\n\n  \n\n   function alreadyvoted(string memory addr) public view returns (uint) {\n      if(balances[addr] == 2){\n        return 1;\n      }\n      else{\n        return 0;\n      }\n   }\n\n\n  function get_A() public view returns (uint) {\n    return voteCountA;\n  }\n\n  function get_B() public view returns (uint) {\n    return voteCountB;\n  }\n}\n",
  "sourcePath": "/home/arya/Programming/Voting_Solidity/contracts/SimpleStorage.sol",
  "compiler": {
    "name": "solc",
    "version": "0.5.16+commit.9c3226ce.Emscripten.clang"
  },
  "schemaVersion": "3.4.7",
  "updatedAt": "2022-05-20T13:16:34.244Z",
  "networkType": "ethereum",
  "devdoc": {
    "methods": {}
  },
  "userdoc": {
    "methods": {}
  }
}